:100000000C9434000C9449000C9449000C94490061
:100010000C9449000C9449000C9449000C9449003C
:100020000C9449000C9449000C9449000C9449002C
:100030000C9449000C9449000C9449000C9449001C
:100040000C9449000C9449000C9449000C9449000C
:100050000C9449000C9449000C9449000C944900FC
:100060000C9449000C94490011241FBECFEFD8E036
:10007000DEBFCDBF11E0A0E0B1E0E4E3F1E002C0FB
:1000800005900D92AA32B107D9F70E9482000C9414
:1000900098000C940000249A8CB580648CBD80E09C
:1000A00091E00C9469000DB407FEFDCF86E191E06C
:1000B0000C9469009093C5008093C40088E08093FD
:1000C000C100E2ECF0E086E0808380818062808382
:1000D00008953DE0FC012191CF01211101C0089557
:1000E0004091C00045FFFCCF2093C600FC01319732
:1000F00020812A3079F72091C00025FFFCCF309372
:10010000C600E8CF0E944B0087E690E00E945A00AC
:100110008FE39CE90197F1F700C000000E945300B3
:100120009FEF21EE84E0915020408040E1F7F4CF32
:04013000F894FFCF71
:10013400496E74697469616C697A6174696F6E205F
:10014400646F6E650A00496E207265636976652086
:0A01540066756E6374696F6E0A0031
:00000001FF
